:1000000000590020C1200100CDD20100952001003F
:1000100095200100952001009520010000000000BE
:100020000000000000000000000000009D1B010017
:100030009520010000000000F91A01009520010040
:10004000651D0100A7F80100651D0100651D010087
:10005000651D0100651D0100651D0100651D010094
:100060005DF80100651D0100651D010091F80100AA
:10007000651D0100651D0100651D0100651D010074
:10008000651D0100651D0100651D0100150F0100C2
:10009000651D0100651D0100651D0100651D010054
:1000A000651D0100651D0100651D0100651D010044
:1000B000651D0100651D0100651D0100651D010034
:1000C000651D0100651D0100651D0100651D010024
:0C00D000651D0100651D0100651D01009B
:0400DC00FFFFFFFF24
:1000E00053B94AB9002908BF00281CBF4FF0FF319F
:1000F0004FF0FF3000F00CB8ADF1080C6DE904CE04
:100100000CF0ACF8DDF804E0DDE9022304B0704740
:10011000704700BF2DE9F00791E8F807B2E8021038
:100120005B1854EB0C04B2E802104D4156EB0C0680
:10013000B2E802104F4158EB0C08B2E8021059EB3C
:1001400001095AEB0C0A80E8F80780410130BDE84C
:10015000F00770472DE9F00791E8F807B2E80210C0
:100160005B1A74EB0C04B2E802108D4176EB0C06BE
:10017000B2E802108F4178EB0C08B2E8021079EB7C
:1001800001097AEB0C0A80E8F80780414042BDE89B
:10019000F00770472DE9F007524290E87800B1E887
:1001A00080071740DB1918EA020854EB080419EA23
:1001B000020955EB09051AEA020A56EB0A0678C04D
:1001C00090E87800B1E8800717407B4118EA020800
:1001D00054EB080419EA020955EB09051AEA020A68
:1001E00056EB0A0678C080410130BDE8F007704741
:1001F0002DE9F007524290E87800B1E880071740F7
:10020000DB1B18EA020874EB080419EA020975EB13
:1002100009051AEA020A76EB0A0678C090E8780027
:10022000B1E880071740BB4118EA020874EB0804E4
:1002300019EA020975EB09051AEA020A76EB0A06C1
:1002400078C080414042BDE8F00770472DE9F001D9
:1002500052424FF0040890E8300091E8C000A31B20
:100260001340E41AF618EB1B1340ED1AFF1830C0C8
:10027000C0C1B8F10108EED1BDE8F001704700BF80
:1002800000B592EC080AB1E8805707EE101A53EC5B
:10029000102A56EC114AA7FB0251A8FB020BE7FB00
:1002A0006310E9FB62B041EC145AA8FB0351EAFB6E
:1002B0006201E7FB64B5E7FB6605E8FB661505EE42
:1002C00010BAA9FB03B6EAFB6316ECFB6356E8FB26
:1002D000640BE9FB641BEAFB645BECFB646B05EEFF
:1002E000900AACFB023012EE104AEEFB6250E9FBC2
:1002F0006460EAFB64B0E7FB6431E8FB645112EE32
:10030000904AE8FB6461E9FB64B1EAFB640106EE34
:10031000103AA7FB043213EE104AE7FB6462E8FBD5
:1003200064B2E9FB6402EAFB641211EE904AE9FB55
:100330006453EAFB646313EE904AE7FB64B3E8FBA3
:100340006403E9FB6413EAFB642306EE905A17EE9C
:10035000109A99E8000610EE108AA9FB0854EAFBEF
:1003600068B412EE108AECFB6804EEFB6814E9FB3B
:100370006824EAFB683410EE908AEEFB6865E9FBBE
:1003800068B5EAFB680512EE908AECFB6815EEFB97
:100390006825E9FB6835EAFB684507EE106A11EE4F
:1003A000108AAEFB0876E9FB6806EAFB681613EED6
:1003B000108AECFB6826EEFB6836E9FB6846EAFB30
:1003C000685611EE908AECFB68B7EEFB6807E9FB14
:1003D0006817EAFB682713EE908AECFB6837EEFBA0
:1003E0006847E9FB6857EAFB686700BD2DE9F04FF5
:1003F00007EE900AFFF744FF17EE908A07EE90BAD7
:10040000A8EC084A88E8FF00BDE8F08F00B591E845
:100410009857A3FB0352A3FB0401E3FB6420E3FB17
:10042000671042EC145AA3FB0752E3FB6802E4FB9B
:100430006415E3FB6805E3FB6925A4FB07B6E3FB52
:100440006926E3FB6A56E4FB670BE4FB682BE3FBDE
:100450006A5BE3FB6C6B40EC151AA4FB0810E4FB31
:100460006950E3FB6C60E3FB6EB0E7FB6721E4FBE4
:100470006951E4FB6A61E3FB6EB1E4FB6E0106EED9
:10048000102AA7FB0832E4FB6A62E4FB6CB2E4FBCF
:100490006E02E7FB6E12E7FB6853E7FB6963E4FB60
:1004A0006CB3E7FB6C03E7FB6E13E8FB6E2306EE11
:1004B000905AA7FB0954E7FB6AB4E7FB6C04E8FB1E
:1004C0006C14E8FB6E24E9FB6E34E8FB6865E7FB1F
:1004D0006AB5E8FB6A05E8FB6C15E9FB6C25E9FBEE
:1004E0006E35EAFB6E4507EE106AA8FB0976E8FB5D
:1004F0006A06E9FB6A16E9FB6C26EAFB6C36EAFB46
:100500006E46ECFB6E56E8FB69B7E9FB6907E9FB51
:100510006A17EAFB6A27EAFB6C37ECFB6C47ECFBDB
:100520006E57EEFB6E6700BD2DE9F04F07EE900AA7
:10053000FFF76CFF17EE908A07EE90BAA8EC084A16
:1005400088E8FF00BDE8F08F30B44FF0000310F8EA
:10055000014B11F8015B013A84EA050443EA040304
:10056000F5D1A3F101034FEAD37030BC704700BF4F
:100570004FF0000310F8012B013943EA0203F9D1CF
:10058000A3F101034FEAD370704700BF30B411F8F4
:10059000014B12F8015B6C4000F8014B013BF6D1B6
:1005A00030BC70472DE9F00791E8F807B2E8021077
:1005B0005B1854EB0C04B2E802104D4156EB0C06EC
:1005C000B2E802104F4158EB0C08B2E8021059EBA8
:1005D00001095AEB0C0A8941B3F1FF3374F1FF347E
:1005E00075F1FF3576F1000677F1000778F1000824
:1005F00079F101097AF1FF3A51F100015B184C41A0
:100600004D4156F1000657F1000758F1000859EB2B
:10061000D1795AEB010A80E8F807BDE8F007704786
:100620002DE9F00791E8F807B2E802105B1A74EBC5
:100630000C04B2E802108D4176EB0C06B2E8021011
:100640008F4178EB0C08B2E8021079EB01097AEBE4
:100650000C0A89415B184C414D4156F1000657F197
:10066000000758F1000859EBD1795AEB010A80E8EC
:10067000F807BDE8F007704718EB040859EB0509C7
:100680005AEB060A5BEB070B5FF0000C4CF1000C19
:1006900018EB050859EB06095AEB070A5BEB070B49
:1006A00050EB0C005FF0000C51EB0C0152EB0C0214
:1006B00063414CF1000CB8EB070879F100097AF1BD
:1006C000000A7BEB040BA841B141A241B3416CF19C
:1006D000000CBBEB050BB041B941AA41BB416CF129
:1006E000000C4CF001068CF0020718EB060859EBE1
:1006F0006C095AEB6C0A7BEB6C0B70EB6C0471EBC6
:100700006C0572EB670653EB6C076CEB6C0C18EB2B
:100710000C0059EB0C015AEB0C025BF1000354F195
:10072000000455F1000556EBDC7657EB0C077047DB
:100730002DE9F04F07EE900AFFF7A2FD59EC168A5B
:1007400017EE10AAFFF798FF59EC148A5BEC15AA74
:10075000FFF792FF17EE908A88E8FF00BDE8F08F60
:100760002DE9F04F07EE900AFFF750FE59EC168A7C
:1007700017EE10AAFFF780FF59EC148A5BEC15AA5C
:10078000FFF77AFF17EE908A88E8FF00BDE8F08F48
:100790000EB51048017A8DF80110C1798DF800105E
:1007A0008179ADF804104079ADF80200684605F093
:1007B0006DFF08B1B32108E007480068029002A865
:1007C0000EF04BFF002803D0B721032000F0D4F82F
:1007D0000EBD00000C100020800A000010B528B1EA
:1007E000142204490FF0F0FF002010BD6FF0150037
:1007F00010BD0000A00A000070B56FF02C05D0BB42
:10080000204C607808B1A81170BD09B36FF01500D5
:10081000002AF9D01C4B891E06292DD2DFE801F0F1
:100820000306162C191C1078587019E091780029CD
:10083000EAD0D1780029E7D011781B29E4D3517888
:100840001B29E1D31068C3F8050009E010789870FF
:1008500006E01088588103E01188FF29D4D8197365
:100860000122094900200BF049FEB0F5803F05DB6D
:100870006FF00B0070BDFFE72846FBE70121A17078
:10088000F8E70000200000200C10002010B5064CF6
:10089000607820B106F092F920780BF05FFC00F050
:1008A0004FFE0020607010BD2000002070B50C4687
:1008B000050002D00CB1600702D06FF0150070BDCA
:1008C00000F004F9A8B128460BF00EFC0A4D0022F6
:1008D0000A49287020460BF011FE0FF00DFC002194
:1008E000287806F055F9FFF753FF012068700020C3
:1008F00070BD4FF0FF3070BD200000200C100020B4
:1009000030B589B004000CD00BF096FB4FF0FF35EA
:1009100020B10AF035FDB0F5FA7F05D9284609B0B7
:1009200030BD6FF01500FAE70F4D10486C6000F015
:1009300081F900206870A87001461E2268460FF0F9
:10094000BDFF1E220A4968460FF03EFF1E2269467F
:1009500008480FF039FFEFF3108472B600F0FEFD87
:1009600004B962B60020DAE72000002091070000F9
:10097000820A00000C1000200EB572B6154A5568A8
:10098000DDB1002203466E460A2403E0B0FBF4F01A
:10099000521CD2B20028F9D1B0540AE0D8B2B0FB50
:1009A000F4F7B3FBF4F304FB1700521ED2B230305D
:1009B000B054002AF2D13046A847BFF34F8F064803
:1009C0000168064A01F4E06111430160BFF34F8FF3
:1009D00000BFFDE7200000200CED00E00400FA0558
:1009E000064810B581784078014302D04FF0FF30BF
:1009F00010BD06F0F3F8002010BD0000200000201C
:100A0000064810B581784078014302D04FF0FF309E
:100A100010BD05F077FF002010BD00002000002071
:100A2000064810B581784078014302D04FF0FF307E
:100A300010BD0EF0B4FF002010BD0000200000200B
:100A4000064810B581784078014302D04FF0FF305E
:100A500010BD06F0D5F8002010BD000020000020D9
:100A6000064810B581784078014302D04FF0FF303E
:100A700010BD0EF0AAFF002010BD000020000020D5
:100A8000010000010100001B1B0302001F00080001
:100A90000000000000000000000000000000000056
:100AA0008DDC02CB4926C6471A6A3D4E2FD1A4F2EF
:100AB0002E381B75014A526810470000280F00208D
:100AC000014A926810470000280F0020044841683E
:100AD00019B1806808B101207047002070470000FC
:100AE000280F002002490DC881E80D000020704742
:100AF000280F00207CB5214E0546001D30601F48A0
:100B000001F0A6FE0446022804D0042C07D0082CCD
:100B10002DD030E0194928460BF094FD2BE03078B9
:100B2000072804D105213E200BF062FD50B1134986
:100B300028460BF0ECFDB0F5817F0FD37221082021
:100B4000FFF71AFFB6F80300ADF8000001A96846E8
:100B50000BF09DFF0028D2D05321F0E70028CED023
:100B6000A97828780BF044FD0028C8D003E0034999
:100B700028460BF095FD20467CBD0000340F002078
:100B8000402803D2401EC1B2054805E0FF2805D029
:100B90004038C1B2024808300BF012BF0120704744
:100BA00028000020401EC1B201480BF009BF000020
:100BB00038000020024902680A61406848617047B5
:100BC00028000020054902680A60406842F48C222F
:100BD0000A60034A10434860704700002800002064
:100BE000F8074002024902688A604068C86070479E
:100BF0002800002007484FF0FF3100220160C90C97
:100C0000416000F108011F200A604A600831C1E913
:100C1000000270472800002010B5FFF7EBFF0EF030
:100C200034FE04460248006800B18047204610BDEB
:100C3000400000200149086070470000400000208B
:100C40002DE9F04104464FF08050D0F8A0701F4DC0
:100C50001E4E103D1022002120460FF02FFE1022C4
:100C6000002104F110000FF029FE2868401C08D173
:100C70006868401C05D1A868401C02D1E868401C87
:100C800007D028686A68A968EB6820616261A16181
:100C9000E361002000F0B4FD8743F80713D130680A
:100CA000401C08D17068401C05D1B068401C02D1BE
:100CB000F068401C07D032687068B168F368226041
:100CC0006060A160E3600020BDE8F081900000104A
:100CD00038B54FF0805104462248D1F8A010214D7C
:100CE0000268143D521C04D14268D2431204120C13
:100CF00035D0C90733D001684068ADF80000C4F8AA
:100D00000110BDF80000A4F80500A07940F0C00073
:100D1000A0712868401C0CD06868401C09D0A868E5
:100D2000401C06D0E868401C03D0002000F068FD9D
:100D300040B110220021E01D0FF0C0FD0120207005
:100D4000002038BD2A686968A868EB68C4F80720E5
:100D5000C4F80B10C4F80F00C4F81330EEE70020FD
:100D6000EDE70000A4000010022101804180002175
:100D700001718D2141714FF43771C180014981604A
:100D800000207047CB4926C62DE9F041114D0120C6
:100D900055F82030D3B11E79FF2E13D00022411E0A
:100DA00013D400BF55F8214024B12779B74201D1AF
:100DB000A4782244491EF5D5FF2A06D9FA21172026
:100DC000FFF7DAFD0021197100E01A71401EDFD52E
:100DD000BDE8F0815000002030B503464FEA020024
:100DE00003EB400464898C4209D09C78401CB0FB22
:100DF000F4F504FB1500C0B29042F1D1FF2030BDE4
:100E00001CB504460022104664F31740CDE90020CB
:100E10000BE000BFBDF80400214600F001F920B14D
:100E200040F2D7211720FFF7A7FD684600F0A8F889
:100E30000028EFD01CBD000070B50546194850F8D9
:100E4000214064B3B5F5706F04D340F27E211720C2
:100E5000FFF792FD294620460CF0BAF80146FF281C
:100E600004D02046BDE870400CF0C6B8A078B5FBB1
:100E7000F0F100FB1150C6B232464FF6F071204639
:100E8000FFF7AAFF0246FF2809D0B24201D0002096
:100E9000E07029462046BDE870400CF093B8002071
:100EA00070BD000050000020084A10B552F82140E3
:100EB000014620460CF08CF80146FF2804D020465D
:100EC000BDE810400CF098B8002010BD5000002084
:100ED0002DE9FF410400184E0D4603942AD03078C6
:100EE000022802D00020FFF7F3FF03A800F0BCF8AF
:100EF000124F2B78D7E90010BA6863F31F60CDE971
:100F0000001002926946002000F0D2F8D7E90310E1
:100F10006B787A6963F31F60CDE90010029269462D
:100F2000012000F0C5F800F00BF8706804B0001B59
:100F3000BDE8F0810020D9E74400002080110000C6
:100F400010B50E4C2078012813D0032802D04FF49E
:100F5000A37105E0D4E90101814204D040F24911B6
:100F60001720FFF709FDFFF70FFF04202070002076
:100F700010BD02202070606810BD000044000020F9
:100F800010B5044680790E4951F82000A8B14FF6FB
:100F9000F073E179827891420FD24A1CE27100EB42
:100FA000410252899A42F4D000EB41025289A28058
:100FB0000CF022F82060002010BD022010BD0000BF
:100FC000500000202DE9F04107464FF6FF703880B1
:100FD000124850F82140ECB1A5782079B0FBF5F12A
:100FE00005FB110632464FF6F0712046FFF7F4FE7E
:100FF0000246FF280ED0A81B1044B0FBF5F105FBFC
:1010000011002179084481B239802046BDE8F041C1
:101010000BF0D8BF0020BDE8F08100005000002098
:101020002DE9F04106460F4850F821503146284638
:101030000BF0CEFF0446FF2812D0D5F8060021465B
:101040004FEA304728460BF0D7FF01463046B847F5
:1010500005EB44014FF6F07048810020BDE8F081B7
:101060000320FBE75000002010B510490023B8B161
:101070000A78022A02D04FF4837106E003220A7034
:101080000268540704D040F20B111720FFF774FCDC
:101090004C684A6022448A600260CB600B6110BDDC
:1010A000012008708B604B6010BD000044000020E0
:1010B0002DE9F041314D2E78012E04D0032E02D0BF
:1010C0004FF4907137E08A79082A02D94FF4917170
:1010D00031E0CB79002B4ED05F000A376B68022AD3
:1010E0003B4401D9144601E04FF002042344A3F12C
:1010F000010301D9144601E04FF00204A4F10104F8
:1011000023EA04038C881444A2F10102A4F101042F
:1011100024EA02044FF6FF72944202D340F22D11EA
:1011200009E0032E23D1154EDA1B0C3656F8207039
:1011300027B14FF499711720FFF71EFC46F82020C5
:101140001480C87990700120D070087A10710868F6
:101150004FF6F076000CD08008881081002003E064
:1011600002EB4007401C7E81CF798742F8D8C879CE
:1011700000FB04306860BDE8F081000044000020FE
:1011800007ED0000E802080000000000E1E20000B6
:1011900010010800FF0000002DE9FF4F244C064617
:1011A00081B020689A46934650B1017AB14203D982
:1011B000406850F8260038B1032005B0BDE8F08F34
:1011C000A5211820FFF7D8FB194602980BF036FF2F
:1011D000804658460E990BF027FF054608EB0500A0
:1011E000001D87B22068A146394600680BF085FED5
:1011F00004001AD0678025802946201D0E9D0746D1
:101200005A46092300950BF0F2FD208841463844E8
:101210000A23029ACDF800A00BF0E9FDD9F80000EE
:10122000406840F826400020C7E70120C5E70000DD
:101230005800002070B5144C23688BB1197A814294
:1012400012D95A6852F8201071B1002542F8205086
:101250004A8818680BF0A9FE216800200A7A0BE082
:10126000C6211820FFF788FB032070BD4B6853F898
:10127000203033B9401CC0B28242F7D808680BF066
:1012800089FE002070BD0000580000202DE9F041CB
:101290000D46040090464FF0000606D00027A00738
:1012A00005D086211820FFF767FB0127F7E7CDB1AE
:1012B000114600200BF052FE0C3000EB85068FB972
:1012C0000A4F04F10C00AA003C602572606000EB3C
:1012D00085002060002160680FF0F0FA4146386810
:1012E0000BF03CFE3046BDE8F081000058000020C5
:1012F00070B5084D286800280AD0002404E0204674
:10130000FFF798FF641CE4B22868007AA042F6D880
:1013100070BD000058000020094910B50246096858
:10132000002049B10B7A934205D9496851F822103F
:10133000002900D0081D10BDEC211820FFF71CFB70
:10134000580000200A4910B502460968002059B12A
:101350000B7A934207D9496851F82210002902D02C
:1013600031F8040B084410BDFA211820FFF704FBE4
:101370005800002070B51E4B456804460022A1B1FC
:1013800001206070588881085FF0000004EB400382
:1013900004EB80061A83198400FB01537360231841
:1013A000401C1A750428F1D370BD62705FF0000014
:1013B00004EB40010A830A8404EB80014A6021188F
:1013C000401C0A750428F3D35888B0F5FF7F01D27A
:1013D000460800E0FF260BF0A5FE65602084291872
:1013E000A1606684E560A0842161E68470BD000090
:1013F0005C0000202DE9F04158B100251144244E35
:10140000CCB200273470810705D04E210920FFF7A8
:10141000B3FA0125F2E71F2B04D84FF6FF7101EA5A
:10142000830109E05900FF2B0CD903F1FF02B2EB55
:10143000430F00D2114689B24FF6FC72C91C11400D
:1014400035B107E07C22B2EB430FF4D37C21F2E705
:101450007060718004EB840207EBC203002276689F
:101460004FF0010C0DE04DB902EB820700EB030ECB
:1014700006F837C006EBC707C7F804E0521C0B4458
:10148000D2B2A242EFD3DB1D23F00700BDE8F0810A
:101490005C00002070B5104A00205168127814E0FA
:1014A00000EB800311F833306BB100EB800011EBDF
:1014B000C0040CD00025A57001212046FFF75AFF7B
:1014C0002570204670BD401CC0B29042E8D3A921CF
:1014D0000920FFF751FA00005C000020044810B515
:1014E000408884080BF01EFE844200D3204610BDC5
:1014F0005C00002030B50D4901204860821EC1F813
:1015000008230B4988600023C1F80032C1F8082382
:10151000084C2360251D28608860C1F808232360DB
:10152000286006490448086030BD000000E0004023
:1015300000F0004000F500400000F63F08F50140D3
:1015400010B5FFF7D7FF0BF0C4FE03490148086050
:1015500010BD00000000F63F08F5014010B5FFF790
:10156000C9FF0BF0B6FE00F081F80349014808609E
:1015700010BD00000000F63F08F501402DE9F84FCE
:10158000824637480FF085F8DFF8D4B028B101263D
:101590000BF10100FF21017000E000264FF480757F
:1015A000304C4FF000082F1D01216160C4F800810C
:1015B000C4F80481C4F804A52160DFF8AC901CE0F5
:1015C000D9F80000C00618D50E200BF091FEEFF3FD
:1015D0001080009072B603212046C4F804132946F7
:1015E0000BF093FE30B9394620460BF08EFE08B959
:1015F0000FF0E6F8009800B962B6294620460BF0D5
:1016000084FE28B9394620460BF07FFE0028D7D04B
:10161000394620460BF079FE0028C5D10025E6B9F1
:101620009BF801008DF80000009800909DF80000E4
:1016300008B1012500E000250BF1010181F80080CF
:101640000321C4F80813C4F80481C4F800810E20F3
:101650000BF04EFE02480FF033F82846BDE8F88F35
:101660005803002000E0004010ED00E010B50648EF
:101670000FF022F818B130211D20FFF77DF9024844
:101680000021417010BD0000580300200648074AA1
:10169000818C5288914204D190F8220008B1002038
:1016A00070470120704700002A1000204C030020E2
:1016B00001494880704700004C0300200848094A4F
:1016C000818C5288914209D14FF6FF71818410F8C4
:1016D000221F19B1002101700120704700207047BE
:1016E0002A1000204C030020074810F8221F01296F
:1016F00007D0012101700548034900888884012032
:1017000070470020704700002A1000204C03002082
:101710000649074B8A8C5B889A4205D191F82220B2
:1017200012B1016001207047002070472A1000208C
:101730004C03002009498A8CA2F57F43FF3B02D06D
:101740000021016007E091F822200449012A02D01B
:101750000160012070470020704700002A1000201F
:1017600001490880704700004C0300200549002013
:1017700081F822004FF6FF70888403490880488072
:10178000704700002A1000204C03002005498A8C75
:10179000824205D1002081F822004FF6FF70888434
:1017A000704700002A1000200A4A10B1012807D013
:1017B0000EE0507860B1D2F802000860D08804E0F2
:1017C000107828B19068086090898880012070475F
:1017D000002070475A030020084A012338B101282D
:1017E00004D11370086890608888908170475370A6
:1017F0000868C2F802008888D08070475A03002029
:10180000064910B1012802D005E0487800E00878C8
:1018100008B1012070470020704700005A030020E3
:101820000149087670470000E209002001488078ED
:1018300070470000640000200148C0787047000035
:101840006400002070B50C460A4905460848086047
:1018500000F034F918B1DE212720FFF78DF8064893
:1018600001210CF0ACF80548C0E90B5470BD000034
:1018700088220000A8000020C00900206400002089
:101880000149012048717047640000202DE9F84F9C
:10189000634D0A9C2E78002E78D1002A76D0002B3A
:1018A00074D0002C72D0B04605F11406C5E90F01C2
:1018B00086E81C0085F8058085F8048085F802809C
:1018C00085F8018085F80380A5F80C80A5F80E80C6
:1018D00000F06CF9064600F031F9044605F016FFF9
:1018E00005F06AFC94F96E0005F094FFE06906F0DB
:1018F00079F8606906F06CF896F8330006F0A8F8FD
:1019000005F13C00406890F80D0208B105F078FE42
:1019100094F86B10012005F0B3FD002879D0414800
:10192000006805F01DFE2088FFF70CFD6863208825
:10193000FFF7F2FCA86306F1800088363A4F96E87C
:101940000E1087E80E108169C7F81910C069C7F832
:101950001D00883E00F030F90146208FC2460BF092
:10196000E6FDA18E814200D20846A871A94694F8EE
:101970006B1004F12C000CF01AF994F86B1096F827
:101980002380A58F082905D103E0FFE740F253111A
:1019900043E004210BF0CBFDB8F1000F01D1001D95
:1019A00080B2854200D22846C5B289F8075089F82E
:1019B000085096F82300D04698B14FF0010987F8F7
:1019C0001890D6E92001C7E9040194F86B000BF0E8
:1019D0000EFD03462A4614494846CDF8008005F01E
:1019E00057FB012000F04EFB10480068032812D07E
:1019F0000B2810D047F84A8FC7F80480C7F8088032
:101A00000948B18A4A3041802188018096F8331014
:101A10000171BDE8F88F4FF402712720FEF7ACFF8B
:101A200064000020A8000020980900205015004004
:101A30002DE9FC418846074600F0B8F81A4C0546E7
:101A4000B807616A4E7816D5A06A30B36289D21C95
:101A50000EF0BAFEA06A6062694601AAA06B0BF0A4
:101A600043F900980BF0F6F8C8F80000314601225F
:101A7000A06B0BF0A6F8F8070DD0D5E920011835BA
:101A8000401C41F10001C5E91A0115F818090128A7
:101A900008D001202876BDE8FC8140F25F41272074
:101AA000FEF76AFF0020F5E7640000200248C089C5
:101AB000C0F38020704700006400002004480078D4
:101AC00008B10C20704703490020087670470000D9
:101AD00064000020E20900200C4810B5017849B1EB
:101AE00000F13C010078022808D04FF4097127204A
:101AF000FEF742FFBDE8104000F0D0B94868D0F8CA
:101B00002002BDE8104005F033BD00006400002055
:101B10001A2001F8030B044850F8562F0A60426857
:101B20004A6080688860704798090020024A93895B
:101B300003439381526910476400002001484068C4
:101B400070470000A0000020014A002152691047A0
:101B50006400002070B50546012918D8124CA1690F
:101B60008847A0B1207990B9E5B904F11000017857
:101B7000C80605D4E06A0078C00601D4012000E060
:101B80000020A26A2AB962891AB1C90601D40120CB
:101B900070BDA1898A0703D5226AD278022A01D0B2
:101BA0000843F4D1002070BD640000200148406863
:101BB00080307047A000002010B5FFF7BFFF04463B
:101BC000FFF7F4FF0246417F1648252910D0262949
:101BD0000ED0927F252A0BD020290DD021290BD0A1
:101BE000232A0FD094F86A00042800D1082010BDE1
:101BF000406890F8BE120EE0232A03D0406890F8A7
:101C00003E0105E0416891F83E0191F863100840FB
:101C10000BF0E3FB014694F86A00BDE810400BF0BE
:101C2000F4BB0000A00000202DE9FF5F8B46814639
:101C3000FFF7BCFF0026684C07468DF80860039646
:101C4000019620783546022804D040F2E241272050
:101C5000FEF792FEA07B400606D44020FFF774FFFB
:101C6000E08940F04000E08197F82300B9F1000FCF
:101C70003AD080B105F0DAFA05F0B4FA58B9606AE2
:101C8000417841B10078397EC0F3C000884202D16A
:101C9000012060709CE0606A4178618121B1A06B95
:101CA0000BF0F8F8A06200E0A562E08940F48070D3
:101CB000E081606AF97D0078C0F38000884207D037
:101CC00003A800F091F9E08940F48060E08100E031
:101CD0000126606A397E0078C0F3C00088420DD1C9
:101CE00002A800F037F909E008B105F099FAA078E8
:101CF000401CA070E08940F40070E081DFF8D8A0BB
:101D000097F822000AF13C0A90B1FFF717FF334918
:101D10000D76D7E91E23C1E9042390F86A000BF081
:101D200066FB0346FB222D492846009505F0B0F9D5
:101D30004FF00008BBF1000F04D1A1780120FFF79C
:101D400009FF20B105F030FE4FF0010802E000204D
:101D500000F0D6F99DF8080018B101A90220FFF79C
:101D600067FE1E48BA8A49464A305EB12AB9B0F8C1
:101D7000052012B9B0F8072022B1B0F80920521C92
:101D8000A0F8092029B130F8051F491C0180A57071
:101D900003E030F8071F491C01800F483C3001F078
:101DA000E3F9039840B10AF055FFDAF80410401C3B
:101DB000057208220BF08AFE019830B1DAF804109F
:101DC0000572102201980BF081FEB8F1000F01D0CE
:101DD00000F064F8BDE8FF9F64000020980900202F
:101DE0002DE9F84388468146FFF7E0FE294D044679
:101DF0002878012804D040F26E412720FEF7BCFD70
:101E0000207C0027012628B1277400210420FFF739
:101E10008DFEA674296A0878C043800709D1A07D89
:101E200088BB0220FFF782FE286A0078C043800743
:101E300029D0286A407810B10220A07500E0A6756C
:101E400094F8230098B1FFF779FE13492D7A0E76A6
:101E5000D4E92023C1E9042390F86B000BF0C7FA02
:101E600003462A460C493046009705F011F938EA36
:101E7000090004D000210846FFF76CFE28B1BDE838
:101E8000F84300F00BB80320D7E7BDE8F843002083
:101E900000F0F8B8640000209809002010B505F0A3
:101EA00065FA05F089F90E4CE089FFF74DFE0D4803
:101EB000007E70B10B484A3850F84A1FC160416833
:101EC00001618168416107480222074919300BF01E
:101ED00011FEE2692179607890470020207010BDE2
:101EE00064000020E2090020111B0000084810B522
:101EF0000078022804D040F24E212720FEF73CFD56
:101F000004490120C872BDE81040FFF7C7BF0000B8
:101F100064000020E209002030B404460C48007A36
:101F20000BB1001DC0B23AB9FF2805D194F86B205F
:101F300094F86A309A4209D021B194F86B1030BC01
:101F400005F056BDFF2094F86A10F8E730BC7047E2
:101F5000640000202DE9F0410746FFF727FE214CE1
:101F600005460126616A087800F0030001280CD0BC
:101F700002280AD003281BD12E74E08940F40060A7
:101F8000E0810120FFF7D2FD12E0487880B1E189BD
:101F900041F40061E181A16A002918D0FB2818D81A
:101FA000607920B1BDE8F0412020FFF7CDBD3E7043
:101FB000287E012812D02E76606A4078002806D04C
:101FC000F5E92001401C41F10001C5E90001BDE82F
:101FD000F081207940F010002071F8E70020287689
:101FE000EAE700006400002070B50546FFF7DEFD5B
:101FF0000446807D00282DD002280CD11B4829469C
:10200000406B0AF0B6FD30B3D4E91E01401C41F12B
:102010000001C4E91E010025A575A07C20B1A574AE
:1020200000211020FFF782FD607C70B16574FFF71E
:1020300045FB98B100210820FFF778FDD4E91E0187
:10204000401C41F10001C4E91E01E07D01280AD0D5
:102050000120E07570BD40F2DD3101E04FF47D718B
:102060002720FEF789FCE57570BD000064000020A4
:1020700003480078002801D0FFF710BF7047000028
:10208000640000202DE9F0410646FFF757FD804629
:10209000FFF78CFD184C05463246E06A606295F801
:1020A000233001214046FFF737FF95F82300002732
:1020B00070B1206B05F0D0FB104801210176D5E905
:1020C0002012C0E90412216B606A05F033F804E0C5
:1020D000606A05F0C1FB05F06FF816B9384605F0E7
:1020E0006BFA002198F86A20084605F03FFC0220B0
:1020F0002070BDE8F08100006400002098090020F5
:102100002DE9FC470446FFF751FD0546FFF716FD94
:1021100000278DF800700646DFF8649195F82330AB
:1021200022463946FFF7F8FEA87D4FF00108A9F1D5
:10213000200440B1012820D002282FD003283BD012
:1021400040F2FF2157E0A0795021ADF804008853F8
:102150004846FFF7DDFA30B18020216AFFF7E6FC40
:1021600085F811802CE06A4601A9606B0BF057F9E5
:10217000206210B195F85B1011B1424820621FE057
:102180009DF8001021B90780877001210BF017FC22
:10219000BDF80410206A0BF09AFB11E0B6F850006D
:1021A000ADF804006A4601A9606B0BF038F92062B3
:1021B00030B940F2E9211EE04846FFF7A9FAC0B164
:1021C000206A0823017801F0F7010170EA7D03EA33
:1021D000C202114301F0FB0101702A7E042303EACD
:1021E0008202114301F0EF010170C943890705D054
:1021F00007E040F2F2212720FEF7BEFBC07802285C
:102200000FD0606B0AF0B3FD08B101210AE0206A2B
:102210000078C043800704D0FFF738FA80F001014E
:1022200000E00021206A027842EA0111017095F86D
:10223000221081B1417871B1206B05F00DFB11487E
:1022400028380776D5E91E12C0E90412216A206BEE
:1022500004F070FF03E005F0FFFA04F0ADFF96F81C
:102260006B200121002005F081FB84F80380216AA6
:102270000A8822828978A17484F80080BDE8FC87EE
:1022800084000020C0090020ED1E0000291C000071
:10229000E11D00007120000004494A78824203D900
:1022A000084490F842017047002070475010002009
:1022B00004494A78824203D9084490F84A01704799
:1022C000002070475010002004494A78824203D908
:1022D00001EB001082307047002070475010002042
:1022E000054A01EB410102EB41010268C1F80A21F4
:1022F0008088A1F80E0170475010002004494A78E8
:10230000824203D901EB0010801C70470020704707
:102310005010002010B54FF4C572002105480EF092
:10232000CDFA05480021017041704FF46171418080
:1023300010BD000050100020500300200B4B10B5C2
:102340005C78844210D9184490F80201C0EBC000B8
:10235000184490F852310B70D0F853111160B0F856
:1023600057019080012010BD002010BD50100020AA
:1023700001484088704700005003002005494A7812
:10238000824203D9084490F83A0108B1002070470E
:10239000012070475010002001494870704700002C
:1023A000500300200246094810B500780B4658B18A
:1023B0000748417841B10BB1801C01E004488230EC
:1023C00004F0C0FD012010BD002010BD500300200E
:1023D00050100020084910B5034600204A7806E056
:1023E0000C1894F802419C4204D0401CC0B28242B6
:1023F000F6D8082010BD000050100020F0B51A4C8F
:102400000346002025782BE0C0EBC00222440F7861
:1024100092F853C192F8526187EA0C075E403E443D
:102420004F7892F854C187EA0C073E448F7892F8AF
:1024300055C187EA0C073E44CF7892F856C187EA27
:102440000C073E440F7992F857C192F8582187EA59
:102450000C073E444F795740F74204D0401CC0B2AD
:102460008542D1D80820F0BD501000202DE9F0475A
:10247000044600F180054FF0010971B104F1A6078F
:102480007E1E012929D002294ED0032923D13946A5
:102490003046BDE8F0470BF03FB94FF43A720021E7
:1024A0000EF00CFA85F825902449E96620460721AC
:1024B000296710F8EC1F21F004010170FE2085F857
:1024C000A6007F2068761E48A8600020C5E90000AD
:1024D000202084F89402BDE8F0874FF00008A4F8AB
:1024E000268284F81B82216916480A460844B0FBFC
:1024F000F1F0C4F8C40040F6B830A4F8C800638B0B
:10250000284600F021F8394630460BF005F90EF068
:1025100033F918B1606903F099FF10B184F80D82A6
:10252000D9E784F80D92D6E70169B4F8CA32D4F835
:10253000C4222846BDE8F04700F006B82F4904C47D
:1025400000E0FCFF7FC3C90110B50024A0F84C4097
:1025500030F8504F4C43B4FBF2F420F8104940F2ED
:102560007124634302EB03135B1EB3FBF2F3C381DD
:10257000094BB3FBF2F35B1C83820389634302EBD9
:1025800003135B1EB3FBF2F3436003684B43B3FBDF
:10259000F2F1016010BD0000005A6202024991F997
:1025A00000100BF06AB800006803002008B57F2017
:1025B0008DF80000684605F0FFF940B10548407805
:1025C000404241B29DF900000BF057F808BD9DF95B
:1025D000000008BD68030020014A10705170704768
:1025E000680300200CB504A1D1E90001CDE9000188
:1025F000684600F005F80CBDFFFFFFFF1F0000005C
:102600000549FF220A700A460368C2F801300079C2
:1026100050710020087070476A03002070B590F870
:10262000322090F83130012403FB01212522B1FB37
:10263000F2F302FB131100EBD10280F8321001F02B
:10264000070392F8262004FA03F31A4204D000BFCD
:1026500080F83310002070BD90F83020B1FBF2F309
:1026600002FB1311491CC9B20023C51895F82B2091
:102670008A4212D395F82650002200BF04FA02F6CF
:10268000354201D0491EC9B221B1521CD2B2082A2A
:10269000F4D304E002EBC301DAE7891AC9B25B1C88
:1026A000DBB2052BE1D31F2070BD000070B5491CC3
:1026B0000023C9B20124C518AA798A4212D395F819
:1026C0000150002204FA02F6354201D0491EC9B277
:1026D00021B1521CD2B2082AF4D305E002EBC300A8
:1026E000C0B270BD891AC9B25B1CDBB2052BE2D344
:1026F0009D214620FEF740F9417841B1C0782B2852
:1027000003D2044A105C884201D1012070470020A6
:10271000704700009C09010010B50122C1702B29EF
:1027200002D2064A525C06E0FF2904D040F274410E
:102730002A20FEF721F9427010BD00009C0901001B
:102740000449897C490700D408B100207047012062
:1027500070470000780F00200348807C800701D478
:102760000120704700207047780F00200348807CCC
:10277000C00701D00020704701207047780F00206B
:102780002DE9FE43884699461546044669460AF0F7
:102790005FFEE0BB019E002780367DB12046FEF73C
:1027A000D1FD04000ED029460AF0B3FA18B11B4936
:1027B0004988A94208D20020BDE8FE83012086F89E
:1027C000240024E0672125E0014602AA20460AF001
:1027D00099FA02980780877096F8241009B14FF093
:1027E000020841460BF0EBF802982A464946C01C05
:1027F0000DF0EAFF204629460AF042FA48B1684641
:102800000BF038F90198A0F8127286F824700120B4
:10281000D2E77C212B20FEF7AFF80000780F0020D4
:10282000094882B0007A8DF80000009800909DF869
:102830000000002805D102220449034802B00BF031
:1028400045B902B070470000900F002013DB000074
:102850002DE9F84FDFF874915D4F83464FF0010A80
:10286000002678683546007A8DF8000000980090C0
:102870009DF80010102906D199F8131019B1B9F874
:102880001400002873D08DF80060684600F014F939
:102890009DF800100029F8D1002868D00446007A7D
:1028A0008DF80000009800909DF8008004F1080069
:1028B0000521009001704046B8F1080F42D007DCB6
:1028C00002280DD0032817D0B8F1040F05D11DE060
:1028D0000F2852D0B8F1100F57D040F24E2163E0CC
:1028E000626832B1594620469047042060F30705DC
:1028F00010E040F2C71157E0626822B15946204605
:102900009047054606E04FF4E8714DE06168B1B1CB
:1029100020468847C5F30720012848D0EFF31080F0
:1029200072B6217A8DF80010009900919DF8001080
:10293000052940D0A1B366F3070590B33FE04FF4FB
:10294000ED7131E060685D4698B104882046FEF77D
:10295000F9FC80B10B212970A5F80340A5F805A06A
:1029600085F802A000210AF06BFA04203E61BDE860
:10297000F88FE32118E0C52116E015218BF800102F
:10298000D4F80910CBF80310AFE71248026822B15F
:10299000606838B100885946904702203E61E6E7FA
:1029A00009E00BE04FF411711020FDF7E5FF0098EE
:1029B0004146017003E026723E61BEE762B615F043
:1029C000FF0F3FF44EAFE8B2D1E70000780F0020D0
:1029D000A40F0020AC0000200149087000F0CEB820
:1029E000700300200249014808607047F529000083
:1029F000AC000020FEB50D00064615D0AE800020CC
:102A000068723046FEF788FC04460AF05DF970B142
:102A100001466A4620460AF075F9E88050B1FB2865
:102A20000BD94FF4907131E04FF488712EE040F2F1
:102A300019112BE04FF48F7128E000980AF06BFF1A
:102A4000012804D0022802D04FF498711EE02872A9
:102A50002868F0B10099EA88C91C0DF0B5FE20463F
:102A60000AF0FAF8C0B1204600210AF0E9F9B0B145
:102A70001048C17C00291BD0818A491E818201A98E
:102A800030460AF0E5FC68B14FF4A5711020FDF75F
:102A900073FF40F23711F9E74FF49E71F6E740F209
:102AA0004111F3E70298B0F8B410491CA0F8B41033
:102AB000FEBD0000780F002038B5034617490020FE
:102AC00018700869012440B1027A8DF80020009A3C
:102AD00000929DF80050002D11D14868027A8DF8BF
:102AE0000020009A00929DF80050012D06D0EFF3CF
:102AF000108272B605684D6012B102E0002038BD48
:102B000062B6027A8DF80020009A00929DF800507B
:102B10000DB1086138BD1C7038BD0000A40F002045
:102B200038B5D0B1416000F108010A70EFF31083AD
:102B300072B6104C0460211F4A684AB1127A8DF8AF
:102B40000020009A00929DF80050012D00D10C60E9
:102B50000A68106008602BB105E040F2792110206E
:102B6000FDF70AFF62B604480078BDE8384009F076
:102B7000D9BA0000A80F00207003002010B514225D
:102B8000002108480DF09AFE064812220021143850
:102B90000DF094FE034801210173011D41600160A5
:102BA00010BD0000A40F0020F0B4A2F809000C89A9
:102BB000A2F80B408B89A2F80D304889A2F80F00CB
:102BC000CD89A2F81150CE8DAE4208D14D8D8542EF
:102BD00005D10D8E9D4202D18B8DA34201D00123E0
:102BE00000E00023D3744885B2F81100C885B2F81C
:102BF0000B008885B2F80D000886F0BC014910462C
:102C00000AF05EBF312C0000A2F80900888AA2F801
:102C10000B00C88AA2F80D00088BA2F80F00488BA1
:102C2000A2F81100014910460AF047BF752C0000B8
:102C300038B5A0F11605C07C0C4600F00100FFF786
:102C40007FFD002108B100910FE01120207055F8A0
:102C50001F0FC4F802006868C4F806002889608164
:102C6000A87A2073024840680090BDF8000038BD83
:102C7000FC2C000070B586B00E460446FFF76CFDD4
:102C8000002558B3A4F5BA702572048803A920461C
:102C90000CF0AFFC08B1FC2117E0ADF80040BDF826
:102CA0001200ADF80200BDF81400ADF80400BDF844
:102CB0000E00ADF80600BDF81000ADF8080068463B
:102CC0000CF0D3FC20B140F205112C20FDF754FE8E
:102CD000CDF80050BDF8000006B070BD182006F811
:102CE000030B54F8090F30606068706020893081F0
:102CF000014800680090EDE7FC2C00000400000093
:102D00000400000070B50C4DA5F1080408210A4824
:102D1000FDF7D6FE286810B968680028F6D000F0E4
:102D200013F8206000F010F860602168002901D1DC
:102D30000028F4D070BD0000B8000020014800F069
:102D400009B80000B0000020014800F003B80000FE
:102D5000B800002010B5D0E90021094B094C5343BD
:102D60005443514081EAB21282EA41224FEAF141D2
:102D7000C0E9002143EAD46303EB8303184610BD86
:102D80006037EFC6BB79379E70B5044640680D4684
:102D9000012390F89E20002180300AF070FBD0B112
:102DA00028460AF05EFD6168A1F8BC026168B1F8CE
:102DB0009420801A00B247F6FE7290420DDC002883
:102DC0000BDD284601F2BE210AF046FD61680A20AB
:102DD00081F89E0009E0012070BD282081F8BF0025
:102DE00060680349B6300AF068FE002070BD00003C
:102DF000E7DD000070B5044640680D46012390F8F9
:102E00009E20002180300AF03AFBE8B300212846DA
:102E10000AF02AFDC8B36168B5F80D00A1F8BC023C
:102E20006168B1F89420801A00B247F6FE729042B1
:102E300034DC002832DD28460AF040FD0AF015FB9C
:102E4000064660683146C0F8C46228790AF008FC7A
:102E50006168A1F8BE02B5F8050031460AF0FCFB36
:102E60006168C1F8C00228460AF02BFD6168A1F82C
:102E7000C80228460AF028FD6168A1F8CA02616804
:102E80000D2081F89E0011E000E001E0012070BDFE
:102E900029462046BDE870400AF064BF282081F82A
:102EA000BF0060680249B6300AF007FE002070BD1E
:102EB000E7DD000070B5044640680D46012390F838
:102EC0009E20002180300AF0DAFA70B9606890F82C
:102ED0009E20132A09D00123052180300AF0CFFA61
:102EE00008B1082070BD012070BD606890F8DC005A
:102EF00010B920460AF020FF6168284601F50A71E2
:102F00000AF0FBFC6168284601F58C710AF0ECFCC4
:102F100060680188A0F8D5126168284601F2D721BF
:102F20000AF0E6FC6168284601F2DF210AF0D9FCCC
:102F300060680222054900F533700AF0C7FD616838
:102F4000152081F89E00002070BD0000A1DF000068
:102F500070B54468091D002594F88C008034C007C2
:102F600001D0012070BD486809680C4B41F607028A
:102F70001940E166104020671B2104F16C000BF042
:102F800062F8A4F8585094F85A00401C84F85A008B
:102F9000E06840F00100E060002070BD2F4904F7B8
:102FA00010B5041D03F07EFE034B41F607021840E6
:102FB00011402060616010BD2F4904F72DE9F843EE
:102FC000037840680F1D00F1800500F5A5740646E2
:102FD0004FF000086A7F072128460AF050FAE0B156
:102FE0003968184B7868194041F60702E9661040C5
:102FF00028671B2105F16C000BF025F885F8568039
:1030000085F81D8094F8601040468DF800100099F6
:1030100000919DF8001091B902E00120BDE8F8830D
:103020003188A4F8621084F86100396861667968B3
:10303000A1660222044904F158000AF047FD00206D
:10304000ECE700002F4904F7B3E0000070B50D1D58
:10305000446803F027FE41F60702054B114094F83F
:10306000EC201840024062F307002860696070BDE0
:103070002F4904F7416882B001F5A57091F8AA21A3
:103080008DF80020009A00929DF80020002A0BD1B4
:103090000988A0F862101A2180F861100222034901
:1030A000583002B00AF012BD02B07047B3E0000021
:1030B00070B544680D46037894F89D20803400264E
:1030C000082120460AF0DBF920B9207B800701D5D2
:1030D000012070BD94F85D00800719D428460AF0DD
:1030E00088FC84F8670035F8050FA4F86800688844
:1030F000A4F86A0094F85D0040F0020084F85D00D6
:10310000C00709D00222114904F15E000AF0F2FC66
:1031100094F85D00C00710D1E068810703D5502105
:103120004020FDF729FC40F00200E06094F85A00CE
:10313000401C84F85A00A4F85860607F012802D12E
:10314000667784F85660002070BD00005BE10000E7
:10315000044A9268C2F580534B43424303EB22304A
:1031600070470000C0000020F8B54468064604F12E
:10317000800500F07BF894F8281001291BD1002865
:1031800019D0706890F852118DF8001000990091D4
:103190009DF8001000F5A57000290CD12188A0F839
:1031A0000910697EC172A97E0173BDE8F840022250
:1031B00001490AF08BBCF8BDDFE1000000F50061B9
:1031C0000D4A10B500F50060091300134BB292F9D7
:1031D00000404042002140B2A34202DA92F90210BC
:1031E00005E092F90140A34204DD92F9031008447E
:1031F00000F30701084610BDC00000202DE9FC4186
:10320000A0F5F575A0F5B57495F86B000BF0BCFE54
:103210000646A068FFF7D2FF070021D020460AF03B
:10322000E5FF00281CD0288869460AF011F918B17A
:1032300085217A20FDF7A0FB761CF1B202233A46E5
:1032400068460BF0C0FE00280AD1064806490079FE
:10325000A0FB01650DF07AF980196941C4E900010C
:10326000BDE8FC81C000002040420F002DE9F04184
:103270000746FFF79BF97C68054684F8990080347F
:103280007F2842D094F833007E68A0762946A06853
:10329000FFF75EFFA0601E484079C0B1786800F17A
:1032A0008008D0F88800FFF789FF80B140460AF017
:1032B0009DFF60B1786800F5A578074604F0E6F94F
:1032C00087F86B00134908F1A0000AF0FCFB94F9A1
:1032D0001B000021281A00D5404296F8292082427E
:1032E00010DCFF2A0ED0207F401CC0B2207796F859
:1032F0002A20904202D8E07E7F2803D10020E57684
:10330000207701210846BDE8F0810020FBE700009E
:10331000C0000020FD310000F8B50AF083FF04462C
:103320000D466A4600F062F808B10120F8BD0F486A
:10333000037841788B4201D10020F8BD1A464168DC
:1033400008E000BF01EBC206521E56E9027CC6E946
:10335000007CD2B29DF80060B242F3D8F2B201EB29
:10336000C2015B1CC1E900450370DEE7CC00002010
:1033700010B5420703D063214820FDF7FDFA20B1C4
:10338000034A5170506000201070C80010BD00004A
:10339000CC00002038B50AF045FF6A4600F026F858
:1033A000002814D00A4A1078401EC1B211709DF84E
:1033B0000000526808E000BF02EBC003401CD3E9E4
:1033C0000245C3E90045C0B28842F5D3012038BDAB
:1033D000CC0000200149002008707047CC0000207C
:1033E0000148407870470000CC000020F0B5204D27
:1033F000002313702B7823B300245B1EDBB2D5F8B7
:1034000004C00BE0E5186D080CEBC506D6E90076A4
:103410003F1A8E4101D22C4600E02B461D1B012D88
:10342000F0DC0CEBC406D6E9005680EA050781EA19
:10343000060E57EA0E0705D0451B71EB060503D2B1
:10344000147010E0147011E00CEBC305D5E90045D1
:1034500080EA040681EA05073E4306D0001BA94125
:1034600000D35B1C13700020F0BD13700120F0BD71
:10347000CC0000202DE9F0410446007C02283AD01F
:10348000032838D00026A8B3022836D00127082503
:103490004FF000085EB194F8570004F1580109F0AC
:1034A000CDFF0546082802D0FEF7F6FE60B137B31F
:1034B00057B1E07D00281BD0D4F81100C4F85100AA
:1034C000B4F81500A4F85500267684F85070657697
:1034D000FEF74EFF0E49A0FB012304F148000AF05D
:1034E000E8FF84F85E800021204600F0F3FB012015
:1034F000BDE8F08101E00126C5E70027C7E704F138
:1035000051010020FEF750F90028DDD1F0E700005E
:1035100040420F0030B50C468DB0054601462422CE
:1035200002A80DF051F90BA80BF020F8A07A8DF845
:10353000180020788DF80800B4F80100ADF80000FC
:103540009DF8000000F00101C0F3400241EA420191
:10355000C0F3800241EA8201C0F3C00241EAC20125
:10356000C0F3001241EA0211C0F3401241EA4211D5
:10357000C0F3801041EA8010ADF80A00207D0128D8
:1035800006D0022804D040F2A6210620FDF7F4F967
:103590008DF80C00617A0BA80AF0CFFF207D012185
:1035A000022802D1607D401CC1B2A07E401CC2B284
:1035B0000BA80AF089FFBDF80A00000701D500201A
:1035C00020E00BA80AF092FFBDF80A10282200F0B4
:1035D0002BFE40F2712100F2DD20B0FBF1F04843F8
:1035E000D4F8021040F271230A0A40F271214A43D2
:1035F000D4F80510090A5943904201D8049204E016
:10360000884201D8049000E00491A07C8DF8170056
:10361000207E012800D000208DF81400286B09F0CE
:103620008FFD286B09F034FE242202A928460DF0F4
:10363000CBF80B98A862BDF83000A885E07A68B195
:1036400002280BD05FF0010085F85700E068A865FC
:10365000208AA5F85C000DB0002030BD0020F3E703
:103660000A4A10B500211170094C606000F022F880
:1036700010B140F21D3104E0A068002804D14FF4DD
:1036800048712D20FDF778F910BD0000B80F00201B
:10369000D4000020024901488860704710420000B1
:1036A000D4000020024908608968096808470000C2
:1036B000D4000020084810B5007810B10C24204632
:1036C00010BD00241822214603480DF0F7F803F03E
:1036D0002BFE03F04FFCF2E7B80F0020044910B5B1
:1036E0000978012901D100F061FC002010BD000023
:1036F000B80F0020044903480860054903480860E2
:1037000070470000F93F0000E00000201D45000068
:10371000E400002010B504468078C0F3C00058B122
:103720003C23FF222046E16900F040FA02220449CE
:1037300004F16A000AF0CAF9012084F8690010BD9A
:103740003FE400002DE9F0410F00044623D004F1CE
:10375000280005460AF0F3FEB0B9A078C0F3C00017
:1037600050B328460AF0C2FE064628460AF0E7FE95
:10377000301AC0B20AF038FF014635484268114499
:10378000416028460AF0F9FE28460AF0BBFE0146D1
:1037900020460AF083FE2F4D94F85E600021686891
:1037A00001800AF034FE6088132813D009DC102849
:1037B00036D0122809D131E02046BDE8F04100F0B2
:1037C000F5BB15280FD01D280DD040F24A612D20E1
:1037D000FDF7D2F80021686809F0F6FF012168685A
:1037E0000AF015FE20E00121686809F0EDFF0121D3
:1037F00068680AF00CFE36B104F15F01686809F0F0
:10380000FEFF012106E004F15801686809F0F7FFA6
:1038100094F85710686809F0F8FF05E0062100E009
:103820000221686809F0D0FF204600F0CFFC6088D4
:103830001D2807D0152805D094F83820616B6868DA
:1038400009F0B2FF39462046BDE8F04100F084BAE5
:10385000B80F0020D40000202DE9F0412A4D29782E
:10386000022905D02978032902D040F6EF4121E052
:10387000264C0027616891F800C00CF00F0638B3A1
:103880002068093100F1510390F850204FEADC1014
:1038900009F04CFDE0B13946606809F075FFB8B138
:1038A0002A7820683146022A07D02A78032A04D0D1
:1038B00040F6C8412D20FDF75FF8A2682B785269C9
:1038C0006FF0070606EB8303D2589047064600E0E8
:1038D0000126A87B18B103F027FD03F04BFB002E57
:1038E0000FD020680AF096FE30B103F03FFDA068CB
:1038F0008068BDE8F04100472068BDE8F04100F075
:1039000055BBBDE8F0810000B80F0020D4000020B6
:1039100010B5032902D005290AD102E000F0D4FB3A
:1039200003E00449096809B1884708B1002010BDC7
:10393000012010BDE0000020094A0300106801D0FA
:1039400000F034BB002909D09168064A0969127851
:103950006FF00F0303EB820289580847704700009D
:10396000D4000020B80F002070B50446408810280D
:1039700019D0104DA87B20B103F01CFB402003F0B0
:10398000E1FC0D48406803F067FFA078400704D4CD
:1039900000212279084603F0E9FF002003F00CFE25
:1039A0000220287070BD2046BDE870400121FFF75D
:1039B000C9BE0000B80F0020D400002010B500F0F0
:1039C00027F8114C20680AF025FE002820680BD04B
:1039D0000E490A78022A0BD00A78032A08D040F64A
:1039E000FA312D20FCF7C8FFBDE8104000F0DEBA28
:1039F000A2680978D2686FF0070303EB8101515880
:103A0000BDE8104008470000D4000020B80F002097
:103A1000054810B5807B002805D003F085FCBDE883
:103A2000104003F0A7BA10BDB80F00202DE9F041F7
:103A3000584D044686B02878E8BB2078FF284BD044
:103A40004FF00008A5F80C80C5F8048085F80180C7
:103A500085F8028084F869804F4B504E0FCB8DE87B
:103A60000F00B06840680390684603F079FD03F0EA
:103A70004DFE03F059FC03F07DFA494803F0A8FF1E
:103A8000484803F0AFFF04F1280007460AF075FD2F
:103A900038460AF037FD014620460AF0FFFC94F94B
:103AA0000E0003F0B7FE2179002003F0E9FC0121AC
:103AB000A860A8B100E00FE004F13401206B09F028
:103AC000AEFB074604F13C01206B09F0ABFB4FB1A4
:103AD00094F8201051B905E00C2006B0BDE8F08143
:103AE000297055E020B194F8210008B1012700E0C9
:103AF0000027207E10B9A07840071CD5D4E9121009
:103B00006FF00042504070EA010106D00CF01EFD3B
:103B1000D4E91223801A994100D267B1FEF728FC3C
:103B20002149A0FB012304F148000AF0C2FC012155
:103B3000204600F0CFF87068C01C09F072FCA87332
:103B4000A078C00724D04046414660F31741CDE934
:103B50000481FF20E873E66906F10A0713E0049C7C
:103B6000B44210D0727A607A3B4604F10A0109F03F
:103B7000DDFB40B1A078E873D4F803002861B4F805
:103B80000700A88204E004A8FDF7FAF90028E6D0AF
:103B90000020A2E7B80F0020F0410000D400002070
:103BA000D6BE898E5555550040420F0070B504466B
:103BB00080F873300888A4F87400FF2084F891001E
:103BC0004FF6FF7016460D46A4F89200002B43D125
:103BD000286909F04EFCA4F88A00288BA4F88C0010
:103BE000688BA4F88E0095F80E0284F89000207E71
:103BF000002188B194F8500001280DD194F8562086
:103C0000B0EB921F08D1D4F85100C4F87E00B4F88C
:103C10005500A4F8820003E0C4F87E10A4F88210D6
:103C20001548FF2E40680278C2F3801284F877208E
:103C300018D050F8031FC4F884108088A4F88800B6
:103C400004F17802511E3046FEF778FB28B114F8D3
:103C5000770F40F00200207070BD40F64D412D20DE
:103C6000FCF78AFE50F8032FA2678088A4F87C0036
:103C700044F8841FA18070BDD400002010B5044614
:103C8000FFF7D4FE002808D104480078012803D0AB
:103C900000212046FFF756FD002010BDB80F002080
:103CA0000A4810B50A490468087800280CD008783A
:103CB000022802D00878032801D1FFF7A9FE204688
:103CC000BDE8104000F072B910BD0000D400002023
:103CD000B80F00202DE9F04104468846407EFEF7EB
:103CE000F3FA0546207E012688B185B1607EFEF795
:103CF000D3FA60B904F1510184F8506042460F468E
:103D0000284609F033FB617E3846FEF7E9FAA078D1
:103D100040071DD5607EFEF7F1FA050018D0607EE1
:103D2000FEF7C6FA002813D184F85E6004F15F0143
:103D300042460C46284609F019FB2146054C6068AE
:103D400009F05DFD6068BDE8F041012109F05DBD4D
:103D5000BDE8F081D40000202DE9F0410446294857
:103D60000D46406803F078FD274E0420307055B3AF
:103D70006088102823D004F128008046B5680AF036
:103D8000B5FB074640460AF0DAFB381A401EC0B2BF
:103D90006188282200F068FA0544A078C0F3C000CA
:103DA00030B1706805440AF023FC2844C4F8D00000
:103DB00022792946002003F067FD20B90CE0217923
:103DC000002003F023FB6088132811D007DC1028A3
:103DD00015D0122807D10BE040F6655105E01528F3
:103DE00006D01D2804D040F679512D20FCF7C4FDE3
:103DF0002279BDE8F0410121002003F0B7BDBDE804
:103E0000F0810000D4000020B80F002038B504462F
:103E100090F8B6000B468DF80000009800909DF8D1
:103E2000000000282ED1207884F8B700FF2B12D094
:103E300004F1B902511E1846FEF780FA30B194F829
:103E4000B80040F0020084F8B80013E040F6C271F8
:103E50002D20FCF791FD0C4840680178C1F38011DA
:103E600084F8B810D0F80310C4F8B910B0F80700FF
:103E7000A4F8BD0004F1AE00BDE8384002220349B9
:103E800009F024BE38BD0000D400002089E4000001
:103E90002DE9FE4316460446032904D094F8680031
:103EA00008B1012000E000200025032903D00127EC
:103EB000052905D008E0A1780227C1F3400101E0FF
:103EC000A178C90700296BD0002869D13548DFF8EF
:103ED000D890807B80B109F0A7FA3070FF2814D009
:103EE000C0B26A4602A9FEF729FA48B169469DF8B0
:103EF00008000AF090F905463078FF2805D00DE05B
:103F000040F645712D20FCF737FDD9F8041011F863
:103F1000030BC0F380100AF07EF90546D9F80410AF
:103F200094F8572004F1580311F8030BC0F38010E4
:103F300009F0FCF9D9F80410804611F8030BC0F31E
:103F4000801009F07BFA8146FEF718FA38B148462E
:103F5000FEF7D4F918B14846FEF7AAF938B10021A6
:103F60003078FF280CD0B8F1000F05D101E0012115
:103F7000F6E7627E824201D1012003E0002001E0E9
:103F800028EA0100A278520701D530B908E039B912
:103F90001DB9E07B08B1B84202D10120BDE8FE8323
:103FA0000020FBE7B80F0020D400002070B50446C5
:103FB000C08D104D401CE085A87B002620B103F089
:103FC000B3F902F0D7FFAE732E7094F8690008B110
:103FD00001210AE0607B38B1E18D884204D80121DB
:103FE00020460AF029FB70BD00212046BDE8704044
:103FF0000AF022BBB80F0020F8B50446FF208DF868
:10400000000001266A4605212046FFF741FF60B106
:10401000294D284F6968FA7B07F1100311F8030B4B
:10402000C0F3801009F082F910B100263046F8BDC7
:104030006A68E069127810F8A51FC2F340121140B7
:10404000017001222046E16900F078F800239DF814
:1040500000202046E169FFF7A9FD0222174904F17B
:104060006A0009F033FDE06902220188A4F8AB1070
:1040700090F8A50084F8AD00114904F1A20009F000
:1040800025FD0021E06939700E490B6813B100224B
:10409000214698476868E169D0F8032041F8032F6A
:1040A000B0F807208A800078E169C0F3801088703A
:1040B000BCE70000B80F0020D40000203FE400005F
:1040C0002DE40000E4000020F8B50446FF208DF840
:1040D000000001256A4603212046FFF7D9FEE8B11A
:1040E000207B20B19DF800102046FFF78FFE0D4E7B
:1040F000002170680180042109F066FB204600F071
:1041000065F894F84020E16B706809F094FB06496B
:1041100005200870706803F09FFB00E0002528462A
:10412000F8BD0000D4000020B80F00200248012193
:104130000068FFF707BB0000D40000202DE9F04124
:10414000214E80460C467068154650F80F1F61617D
:10415000416821F07F41E161408909F086F9074615
:10416000206170683946807D09F07AFAA084706811
:104170003946B0F8170009F06FFA2062706830F81D
:104180001B1F2183418861834168C4F8A610017A0E
:1041900084F8AA10417A01F01F0184F8B110407A26
:1041A000400984F80E0204F1620005724572FF2195
:1041B00081720021363809F0FCFC98F90E10204677
:1041C000BDE8F04109F0F9B9D400002070B5074D01
:1041D000044600F15101686809F01EFB94F8501084
:1041E0006868BDE8704009F01DBB0000D4000020E5
:1041F000BD390000593800003939000000000000C6
:10420000113900006939000021E4000027E40000B2
:104210007D3C0000A13C00002D4100000C4200004C
:10422000044200000042000010B5421E022A01D9DB
:10423000CA2109E0401E102909D012290CD01329E7
:104240000AD0152905D0D8212F20FCF795FB054968
:1042500004E00449891D01E00249891F31F810007A
:1042600010BD000008E60000421E10B5D2B2012ABF
:1042700003D91D2901D0EE210DE0132913D004DC50
:1042800010290BD0122904D10DE0152908D01D29C1
:104290000ED04FF481712F20FCF76EFB074804E02D
:1042A0000648083001E00548001D30F8120010BD36
:1042B00040F25A3110FB01F010BD0000F6E500009D
:1042C0002DE9F041044690F8E00016460F4600281C
:1042D0005ED121464F4806F02FFB0546202857D0D7
:1042E0005022002104F1C0000CF0E8FA84F8C0501C
:1042F0000125C4F8C47084F8E05037B1FEF724FDFE
:1043000000F00700401C87F83C0220460AF075FBCD
:10431000A4F8F000022084F8F200A84684F8F350D4
:10432000002504F8E85F06F07BFF07460CF005F96E
:104330002189E83C884200D808463844CF3087B20B
:1043400020460AF02EF830B30BF080FD00F5CD606A
:1043500081B2304607F078F83044C4F8EC00883475
:104360000CF0F4F8C0196941C4E91C0184F84080DC
:1043700024F8665C01200AF037F900F58B70301ADA
:1043800060644FF0FF304108C4E91E01883C25E01D
:104390000C20BDE8F081002120460AF08EFADFF8FB
:1043A0007880C4F8EC000020B8F8041049B1618CA2
:1043B00039B1FEF7C9FCB8F80410B0FBF1F201FB0B
:1043C000120007440CF0C2F8C0196941C4E93E016B
:1043D000BEB1801951EB0501C4E9400194F8C00059
:1043E00004F1E8010AF007FB78B1D4E93E01C4E921
:1043F0003601A4F8E250002120460AF000F800201F
:10440000C7E74FF0FF304108E6E74FF4F671302080
:10441000FCF7B2FADDEA0000E800002001498880DC
:1044200070470000E80000200548002101700122CB
:104430008270417042F2107181800AF03DB9000033
:10444000E80000200149087070470000E8000020E3
:1044500008494FF47A72B1FBF2F110B501F52A71F7
:1044600009F0C0FB40F64801884200D3084680B2FC
:1044700010BD00007D52010010B503F001F905499F
:104480008A68904201D8487808B1002010BD012008
:1044900010BD0000E800002010B50446062938D2FF
:1044A000DFE801F0051103141532002106E0D4F80D
:1044B0009C0210B120460AF031FA01212046BDE8E5
:1044C000104000F02BB9032084F84C0210BD03F01B
:1044D000E3F8C4F89C0294F86B0003F0A1F9D4F857
:1044E0009C12884204D940F2DA313020FCF744FAB9
:1044F00094F86B0003F094F9D4F89C12081A06495A
:104500008A681044886010BD2046BDE810400AF05B
:1045100092BB40F2A271E8E7E80000202DE9F041EB
:104520000C46804612B140F2CC7135E003F0A8F899
:104530000746002084F8C800D4E93E5684F8E0001D
:10454000012084F8E10054F8C40F0121FDF78EFF2B
:104550002068C0F88052C0F88462216814F8040C06
:1045600081F894022068C0F898722068C0E9A256C9
:1045700054F8C4090AF06BFB10B140F259710BE01A
:104580000AF0C5F994F8C0004246064906F08CF8D6
:10459000002804D140F2B5713020FCF7EDF9BDE8F8
:1045A000F081000051EB000010B50C2804D340F25C
:1045B0005B310620FCF7E0F9014931F8100010BD2D
:1045C000804D00002DE9FC41174D0120687000244A
:1045D0004FF6FF760BE00021FCF766FC07000CD0DD
:1045E00097F8940206F090F838460AF06AFA2046E6
:1045F00064F31740CDE900400EE04FF49171302094
:10460000FCF7BAF9009838B190F89412202903D039
:104610000088B042DFD104E06846FCF7B1FC002816
:10462000F0D06C70BDE8FC81E80000202DE9F04777
:10463000044639481E469046807889460025002861
:1046400063D006F0C1FEE0B3B4F8380202285CD3B0
:1046500094F84C02022858D094F8620288BB94F86F
:104660000E02FFF7A1FF00F5C86081B2318094F817
:104670004C02002701280DD0206906F0E5FEB4F8B1
:1046800026224244A2EB0901D4F85422821A01FBEB
:10469000027535E094F8A100032839D001210020EB
:1046A00008F079FF216A47183188D4F8440206F0EF
:1046B000CBFED4F84022D4F84812821A01FB0255EE
:1046C00000E022E0C4F840023188384606F0BCFE23
:1046D000D4F85012C4F85002411A0D4431882069B0
:1046E00006F0B2FEB4F826224244A2EB0901D4F847
:1046F0004822891AD4F85422821A491E01FB025515
:10470000C4F85402012084F862022846BDE8F0870C
:10471000D4F84402C6E70000E800002038B50025C0
:104720000446012902D11048407870B1042084F871
:104730004C0200BF0AF0EBF8A4F89252B4F89400CF
:10474000A4F85E0284F8615238BD0095B4F81412E2
:1047500001230022204600F009F80028EAD040F2A8
:1047600016713020FCF708F9E80000202DE9FF4F12
:104770008BB0044690F86B0099460F46089305905D
:104780000BF064FB054694F80E02FFF70DFF28447A
:10479000ADF8040094F89E000D2804D00020079086
:1047A0000D9810B12EE00120F9E794F84C0203288F
:1047B00028D1079830B3B4F8BC02B84222D1D4F85B
:1047C0005402C4F840022069C4F84402B4F89202CA
:1047D000B4F826120844C4F84802204600F0DCFA77
:1047E000D4F8C0022062B4F8BE02A084D4F8C40297
:1047F0002061B4F8C8022083B4F8CA0260830220A2
:1048000084F84C02B4F8940004F51A75381A0FFABB
:1048100080FAB4F89002381A0FFA80F8B8F1000F55
:1048200008DAD4F88002D4F88412D046C4E9A20190
:104830000120089001AB524641462046FFF7F6FEA4
:10484000049094F84C02DFF838B340B101287CD0D2
:10485000022853D0032879D040F286518CE10121FF
:10486000002008F098FE0646206ABDF80410304487
:1048700006F0EAFDC4F85002BDF80410206906F005
:10488000E3FDC4F8540206A908A802F05DFE0698EC
:104890000090D4E9A201DDE9082306F0EFF9824691
:1048A00020460AF0C8F994F86B00D4F8988202F018
:1048B000E5FF4AF2A13101444FF47A70B1FBF0F008
:1048C000216AD4F850223144081A811A414420390F
:1048D000A1EB0A065000A18C6030014494F86B00F3
:1048E0000AF077F82230CBF80C00D4F89802301A8E
:1048F000B0F5E87F58D240F21F513DE1D4F84412A0
:10490000206A0844BDF8041006F09EFDC4F8500269
:10491000BDF80410206906F097FDC4F85402204643
:104920000AF089F9B4F8260210BBB9F1000F1FD0C4
:1049300094F86B80404602F0A1FF4AF2A131014495
:104940004FF47A70B1FBF0F001E02EE04AE0D4F8C9
:104950005012226A0844D4F8441211440E1A4046F8
:1049600002F05EFFD4F89C12081A0644203E06E0CE
:10497000216AD4F844020844D4F85012461AD4F8F4
:104980004822D4F84012D4F8500201FB0200400043
:10499000A18C6030014494F86B000AF01AF8CBF84F
:1049A0000C00012084F84C0261E0D4F85412206914
:1049B000B4F82622461A02EB0A00D4F84822D4F8AA
:1049C00040C2801AD4F85032401E0CFB023200FB69
:1049D00001204000A18C6030014406FB08F694F8E9
:1049E0006B0040E02069D4F8541200FB08F008FB8B
:1049F000110694F89D00252803D094F89E002528E0
:104A000009D1B4F8BC02381A00B2002803DB94F8CC
:104A1000BF0200B105900898D8B1B4F82602C0B919
:104A2000D4F89C0200287DD094F86B0002F026FF99
:104A30004AF2A13101444FF47A70B1FBF0F0361A1A
:104A400094F86B0002F0ECFED4F89C12081A0644AD
:104A5000203EB4F8261201EB0A00D4F85412484361
:104A600041006031059809F0B4FFCBF80C000498C0
:104A7000DBF80C20311AD4F854622069801BA0F2B4
:104A80005A20CBF81000824200D81046C4F8200209
:104A900000262E706E202881D4E9A2205118704182
:104AA000C5E9041004F12C0009F0A7F8D4F820128D
:104AB00008446860D5E90401C4E9A201A4F8907231
:104AC000AE72B4F81002C01B00B2002801DD022053
:104AD000A872079838B3B9F1000F1CD0B4F8381297
:104AE000F1B3B4F83A0200BFA4F83A0294F83C22B9
:104AF000401C42438A420ED2A87A60B1AE72B4F82A
:104B00003A02401CA4F83A02FEF718F900F0070038
:104B1000401C84F83C0294F89402294609F06BFF8B
:104B200040B301E009E00BE00D9880F0010084F84B
:104B3000600200200FB0BDE8F08F40F271511BE021
:104B4000B9F1000FCAD194F84C020028E3D0D4F890
:104B500054122069411A284608F033FD000400E091
:104B600006E0000CD7D0189901B108800120E1E7D8
:104B70000020B9E740F2CF513020FBF7FDFE0000E6
:104B8000E80000202DE9F041054690F86B0028214F
:104B900009F00EFE00F52E780BF0CFFC6E2800D841
:104BA0006E20D5F85412A0F16E032A690B449A4284
:104BB00003D9511A0C1A6E3400E000241D4F3878C6
:104BC00018B9E86AA04200D8044605F12C0009F0A3
:104BD00014F8064695F86B000AF020F8D5F8201274
:104BE00030444618A41B002C00DC0024022004F0F2
:104BF0005FFE844200D304460221204604F060FD9B
:104C000000B9264442463146284608F095FFB86070
:104C100095F86B000AF002F8301AA0F26F1005F058
:104C20008FFF002804D140F2D5313020FBF7A4FEDD
:104C3000BDE8F081E80000207CB504460BF086FC5E
:104C4000D4F88032D4F88422C01A61EB0201002229
:104C50001346121A8B4102DB40F24C6152E0421CB7
:104C600071F1000102DB40F24D614BE0226900214D
:104C70000AB1B0FBF2F194F89E000D280CD0B4F804
:104C80009400B4F85E3242189A1A12B2002A06DB77
:104C90005B1CA4F85E3206E0B4F85E0212E0491C28
:104CA0000844A4F85E0294F861028DF800000098B0
:104CB00000909DF8000040B9B4F85E02B4F81412F8
:104CC000884202D1401CA4F85E02B4F89202401C53
:104CD000A4F89202B4F8CE00B4F8CC10401AB4F89C
:104CE0009410401E084485B226E001A800230090DD
:104CF0001A462046FFF73AFD002838D0012804D094
:104D000040F28C613020FBF737FEB4F85E02B4F855
:104D10001012421A12B2002A09DABDF80420024425
:104D2000AA1A12B2002A02DAA4F85E1204E0BDF850
:104D300004100844A4F85E02B4F85E12681A00B2C7
:104D40000028D2DA94F8A10078B1082084F8BF00D6
:104D5000074904F1B60008F0B0FE204609F0EDFF67
:104D60002046BDE87C4009F0ACBE3E20EEE77CBDAD
:104D7000E7DD000000000000141E000030110000FC
:104D8000F401FA00960064004B0032001E0014008B
:104D90000A0005000200010010B50446D0F8C40264
:104DA0002169884209D1B4F8C812228B914204D1FA
:104DB000B4F8CA12628B914214D02188A4F8C011B1
:104DC00008F057FBA4F8C201B4F8C802A4F8C40163
:104DD000B4F8CA02A4F8C6010222074904F5DB7040
:104DE00008F088FE02212046FDF740FB002004F871
:104DF0009E0F0320E07010BD8DDE000006480549BF
:104E0000016506494165074805490165064941654F
:104E100070470000295E000014010020D5DE00006C
:104E2000B1DE0000C001002081EE00001E481D49D7
:104E300081601E4941601E4901601E4981621E4910
:104E4000C1621E49C1601E4981611E4901631E493C
:104E500001621E49C1641E4981641E4941641E49A4
:104E600041631E49C1611E4941621F481D4981605D
:104E70001E49C1611E4941621E49C1621E4901614C
:104E80001E4941611E4941641E4941631E498161B9
:104E90001E4901631E4981641E49C1641E49816324
:104EA0007047000043DE000014010020892D00003F
:104EB000F52D0000BFDF00000BE00000B52E000064
:104EC00023E00000B1300000512F000023E100007A
:104ED000DBE000009BED0000115F0000615F00005F
:104EE000BD2F00006FDE0000C0010020A1600000A7
:104EF0007DEE0000BDEE000057EE000055EF000013
:104F000003EF000033EF00002D60000073EF00009E
:104F1000FFE0000049E1000051EF000006480549AC
:104F20008165064901660748054981650649C165ED
:104F30007047000081FE000014010020716D000028
:104F400023FF0000C0010020E3EE0000F8B57C4C18
:104F50000121A4F110062170002560607580757034
:104F6000357080F81B120088FCF7ECF980B160689E
:104F70000088FCF7F5FB60680088FCF799FB606827
:104F8000B0F81212C9B1803009F0E6FE18B114E091
:104F900040F6D9116CE0606890F830118DF800107F
:104FA000009900919DF8001039B190F89F200123DD
:104FB0001946803008F063FA80B16068803009F0EB
:104FC000CBFE28B1606890F8260100BF00F02EFBF0
:104FD000606890F81D1289B1B5801EE06068A0F885
:104FE000D05090F8311180F828110121022000F0F2
:104FF000E3FD606880F81A520220E7E790F8BE11DE
:105000008DF80010009900919DF8001019B9C18C1D
:10501000028B914200D8018BB180B0F81612491E64
:105020008FB2B0F818123944A0F8181230F8CC1F1B
:105030003944018001F062F820B1606850F8C01F67
:10504000394401606168B1F81202012802D8401C9D
:10505000A1F812020FB181F8245281F81A52B1F866
:10506000162201F1800008F035FB20B14FF42261D7
:105070003120FBF781FC606890F89E100A2901D06E
:105080000B2919D1B0F89420B0F8BC32D21A12B260
:10509000002A11DBD0F8BE12C0F8A61090F8C21298
:1050A00080F8AA100321FDF7E1F9606880F89E50AE
:1050B000FF2180F8F41026E0252911D1B0F89410D2
:1050C000B0F8BC22891A09B2002909DB80F89E5089
:1050D00000F02CFE0028606880F83C5129D012E0D6
:1050E00090F89D10252901D027290CD1B0F89410F3
:1050F000B0F8BC22891A09B2002904DB80F89D505F
:1051000000F014FEA8B10F480090D6E904010E4B40
:105110000E4AFCF7BBFB60680123052190F89E2036
:10512000803008F0ACF9002809D0BDE8F840FCF761
:10513000A7BBBDE8F8400021084600F049BBF8BD18
:105140000C010020D15700000D530000795C0000D5
:105150001D4908B5496891F89E20C0B1112A06D0B2
:10516000152A07D0162A09D01C2A28D109E00021C7
:105170000B2008E0144809F027FE06E000F03AFD95
:1051800003E00021062000F017FD012008BD222ABF
:1051900004D02F2A13D100211120F4E791F83C010B
:1051A00002280ED091F83C01012808D191F83D0168
:1051B0008DF80000009800909DF8000008B10020D4
:1051C00008BD00211720DEE70C01002038B50028BB
:1051D00073D13B4C6068D0F88C10CA0702D0002114
:1051E000092066E08A070AD500210C2000F0E4FCC3
:1051F000606810F8DD1F41F0010101705BE04A07B3
:1052000002D50021132054E00A0706D590F820119A
:1052100080F82811002107204BE011F0300F44D016
:1052200090F833118DF80010009900919DF800104E
:10523000C1BB90F8321100258DF800100099009143
:105240009DF80010C1B190F89E1025292BD090F840
:105250009D10252927D0002300F2BE2200F5997168
:1052600008F05CFC606850F88C1F21F0200141F0D0
:105270001001016080F8A650606890F88C10C90693
:105280001BD508F066FC0E4808F062FE616801F16B
:105290002C00C28BA1F82821408CA1F82A01002102
:1052A000152006E009E00123D6E7480605D50021D0
:1052B000242000F081FC012038BD002038BD000012
:1052C0000C01002010B5104C01230021606890F8FB
:1052D0009D20803008F0D3F840B16068012304219C
:1052E00090F89E20803008F0CAF808B1002010BD68
:1052F000606890F8CA000028F9D00121122000F05F
:105300005BFC012010BD00000C0100200D4902468D
:105310004878A0B901F11000406842B189780907C6
:1053200003D590F89F00072809D00120704700F1AD
:105330002C018A8C818E8A4201D8FFF79DB800200B
:1053400070470000FC00002038B5324C054660680C
:10535000803009F001FD00285BD1002D59D1606833
:105360000123194690F89F20803008F088F8002823
:105370004FD1606890F830118DF8001000990091BD
:105380009DF80020002142B1A0F8D01090F8311112
:1053900080F828110121022030E090F89E2001239E
:1053A0000421803008F06BF80546FFF70FFF002856
:1053B0002FD12846FFF7CCFE00282AD1FFF782FF25
:1053C000002826D1606890F89D1009291AD0002D78
:1053D0001FD100F01DFB00281BD1606801230021B4
:1053E00090F89D20803008F04AF8002811D06068BD
:1053F00090F8B40200280CD00121FF20BDE838400D
:1054000000F0DABB90F8211180F828110121072063
:10541000F4E738BD0C010020F8B52B4D060005F16E
:10542000100433D100F0B4F800F052F806002DD18A
:105430006988480706D5606890F89F00062801D162
:1054400001202870880716D5A868C0782B2807D2B5
:105450001E4951F8201019B11B48103088470AE046
:10546000FF2804D040F27C513120FBF785FA164822
:10547000103009F0E7FCA878C00607D5606890F8FE
:105480009E100A2902D10B2180F89E10687800072F
:1054900018D560680123052190F89E20803007F020
:1054A000EEFF08B108260DE00025694603200095AF
:1054B000FCF7BEFA009828B10572102261680098C6
:1054C00008F004FB3046F8BDFC000020C0010020BD
:1054D0002DE9F0412C4F0020B978C90717D007F10A
:1054E0001006FC6870680123E57890F89E2005217D
:1054F000803007F0C4FF60B1AD1E0A2D06D2DFE890
:1055000005F0080805050808050508080820BDE895
:10551000F0812046FDF7F0F830B1E57845B1012D76
:1055200006D0162D18D103E017482146103026E08A
:10553000706890F89D0008F038FC68B1716891F8C7
:105540009D00202808D0212803D0162D10D002203D
:10555000DDE72E2081F89D002B2D0BD20B4850F853
:1055600025203AB1F968BDE8F041074810301047EE
:105570002020CCE7FF2DD7D1034821461030BDE8CD
:10558000F04108F0EFBB0000FC00002014010020F7
:1055900070B5254EB078000745D506F11004606857
:1055A000803009F0D9FB48B16068FE21002580F801
:1055B000261190F89E101A290ED104E04FF4B16123
:1055C0003120FBF7D9F980F8DB501748103008F08C
:1055D000BBFB606880F89E50606890F89D102029A1
:1055E00002D0312916D10EE090F89E2001230B2124
:1055F000803007F044FF08B12E2000E021206168D0
:1056000081F89D0006E0012180F8B51280F89D50D8
:1056100080F8D650606890F89F10072903D10221C6
:10562000317080F8261170BDFC00002038B50546A9
:105630006846FCF77FF808B32222002100980BF09F
:105640003DF90321009808F0BAF90098017801F0BB
:10565000EF0101702946FDF75FF85B4C112D32D048
:105660000FDCA5F102050D2D1FD2DFE805F0211E8C
:1056700055A3A3261E621EA33F39900040F63201B7
:105680009EE0172D75D008DCA5F11205052D0CD272
:10569000DFE805F0909054543800232D7BD0242D62
:1056A00079D0252D77D0FF2D7CD040F6E40187E01E
:1056B0006168009891F8281116E06068009990F8E8
:1056C0002801087176E0606890F82311009808F0CE
:1056D00062F9606890F82211009808F060F969E0BA
:1056E0006168009891F82211017163E000980D2122
:1056F000017159214171002181716821C17111210C
:10570000017257E00098616891F83E11017161687B
:1057100091F83F1141714DE06168009801F50C71FD
:1057200008F0F4F86168009801F58E7108F0EBF864
:1057300040E025480099FDF789FC3BE06068B0F83F
:105740004C10009808F043F96068B0F82A110098EE
:1057500008F041F96068B0F84810009808F03FF987
:105760006068B0F82811009808F03DF922E000E0E8
:1057700011E0616891F83C0101280098C4D091F8CB
:1057800066100171616891F86710C3E70AE000983C
:10579000FDF706FC0EE00D4B0B4A28461B680099EE
:1057A000984707E0606890F8B722D0F8B8120098E0
:1057B00008F0F7F8FBF798FF002804D140F6E8015D
:1057C0003120FBF7D9F838BD0C0100206C02002015
:1057D0002DE9F35F8C4E8A4670680088FBF7B2FDB6
:1057E00007000CD0A6F110054FF000046888C00532
:1057F0000AD57068A0F8CC4080F8244209E040F651
:10580000C2313120FBF7B8F8716831F8CC0F401C79
:10581000088000F073FC4FF0010940B36888000570
:1058200006D5706890F8A31011B1C0F8C0401EE012
:105830007068D0F8C010491CC0F8C010D0F8C4205F
:105840008A4201D3531A00E00023B5F804C00CF1DA
:10585000050C634501D880F8CA90914207D3C0F87F
:10586000C0400222694900F2571008F043F96888E5
:105870004FF0020B10F4407F0ED0706890F8A1102A
:1058800011B1032908D102E080F8A19001E080F86D
:10589000A1B00121FEF700FE7068B04690F8A1109B
:1058A000012904D16988490501D580F8A1B0009982
:1058B000002979D1A978490602D5A0F8384204E038
:1058C000B0F83812491CA0F838125046FFF7A4FD72
:1058D00040EA0A008246FFF737FDD8F80460B6F8C0
:1058E0001802401CA6F8180296F81C0228B1FCF712
:1058F000DDF8B0B1A6F8184213E0FBF79DFF08B140
:10590000A6F81842FBF792FF58B196F82402401C03
:10591000C0B286F82402022803D9A6F8184286F8F5
:105920002442D8F804004646012390F89E20002126
:10593000803007F0A4FD20B9706890F89E000B2815
:105940005FD170680123002190F89D20803007F01E
:1059500096FD50B370680123002190F89F2080309D
:1059600007F08DFD08B3706890F8A110022948D1A6
:1059700090F82402C8B9384607F0F3F8A8B1706867
:10598000803009F0E9F980B97168B1F81202012894
:1059900037D981F81A92B1F8CE20B1F8CC00931E15
:1059A000984203DB012004E01CE02AE0101A401EAC
:1059B00080B2B1F81832AA88934201D3012202E0E2
:1059C000D21A521C92B2904200D91046012801D13D
:1059D00081F81A427168B1F894201044A1F81402B9
:1059E00000F0A6FCA8785246C0F38011009800F0A1
:1059F00099FBD8F8040080F81B42BDE8FC5FFBF778
:105A00005DBE01207168E3E70C010020CDE00000DD
:105A10007CB5684C01230021606890F89D2080309F
:105A200007F02DFD00287AD0606890F8431100251A
:105A300039B101210E2000F0BFF8606880F84351B1
:105A4000B6E090F8421119B190F8DD10890716D030
:105A500090F832118DF80410019901919DF804100D
:105A600041B190F833118DF80010009900919DF824
:105A7000001089B190F83C11012930D040E001219B
:105A80000C2000F099F8606810F8DD1F41F001016A
:105A9000017080F865508BE090F89E1025291CD08D
:105AA00090F89D10252918D05FF0000300F2BE2267
:105AB00000F5997108F032F8606880F832510121E0
:105AC000142000F079F8616801F12C00C28BA1F874
:105AD0002821408CA1F82A016AE00123E6E790F82A
